:020000040800F2
:10000000009000202D550008310E0008330E000826
:1000100000000000000000000000000000000000E0
:10002000000000000000000000000000ED52000889
:1000300000000000000000000153000845530008C4
:100040007D5500087D5500087D5500087D55000848
:100050007D5500087D5500087D5500087D55000838
:100060007D550008350E0008450E00085D0E00089D
:100070007D5500087D5500087D5500086D0E00086F
:100080007D5500087D5500087D5500087D55000808
:100090007D5500087D5500087D5500087D550008F8
:1000A0007D5500087D5500087D5500087D0E00082F
:0C00B0008D0E00089D0E00087D55000814
:1000C00010B5064C2378002B07D1054B002B02D02E
:1000D000044800E000BF0123237010BD7000002021
:1000E00000000000D8550008044B10B5002B03D0C9
:1000F0000349044800E000BF10BDC04600000000F6
:1001000074000020D8550008002243088B4274D3A5
:1001100003098B425FD3030A8B4244D3030B8B4208
:1001200028D3030C8B420DD3FF22090212BA030C11
:100130008B4202D31212090265D0030B8B4219D3F2
:1001400000E0090AC30B8B4201D3CB03C01A524112
:10015000830B8B4201D38B03C01A5241430B8B425A
:1001600001D34B03C01A5241030B8B4201D30B0343
:10017000C01A5241C30A8B4201D3CB02C01A52416A
:10018000830A8B4201D38B02C01A5241430A8B422D
:1001900001D34B02C01A5241030A8B4201D30B0216
:1001A000C01A5241CDD2C3098B4201D3CB01C01A30
:1001B000524183098B4201D38B01C01A524143093A
:1001C0008B4201D34B01C01A524103098B4201D328
:1001D0000B01C01A5241C3088B4201D3CB00C01A95
:1001E000524183088B4201D38B00C01A524143080D
:1001F0008B4201D34B00C01A5241411A00D2014632
:10020000524110467047FFE701B5002000F0F0F8BA
:1002100002BDC0460029F7D076E7704703460B437E
:100220007FD4002243088B4274D303098B425FD3EF
:10023000030A8B4244D3030B8B4228D3030C8B421B
:100240000DD3FF22090212BA030C8B4202D3121201
:10025000090265D0030B8B4219D300E0090AC30BD6
:100260008B4201D3CB03C01A5241830B8B4201D383
:100270008B03C01A5241430B8B4201D34B03C01A6C
:100280005241030B8B4201D30B03C01A5241C30AE4
:100290008B4201D3CB02C01A5241830A8B4201D355
:1002A0008B02C01A5241430A8B4201D34B02C01A3F
:1002B0005241030A8B4201D30B02C01A5241CDD2E4
:1002C000C3098B4201D3CB01C01A524183098B422F
:1002D00001D38B01C01A524143098B4201D34B0118
:1002E000C01A524103098B4201D30B01C01A52417B
:1002F000C3088B4201D3CB00C01A524183088B4202
:1003000001D38B00C01A524143088B4201D34B00EA
:10031000C01A5241411A00D201465241104670475C
:100320005DE0CA0F00D04942031000D34042534061
:1003300000229C4603098B422DD3030A8B4212D321
:10034000FC22890112BA030A8B420CD38901921153
:100350008B4208D3890192118B4204D389013AD090
:10036000921100E08909C3098B4201D3CB01C01A65
:10037000524183098B4201D38B01C01A5241430978
:100380008B4201D34B01C01A524103098B4201D366
:100390000B01C01A5241C3088B4201D3CB00C01AD3
:1003A000524183088B4201D38B00C01A5241D9D2EB
:1003B00043088B4201D34B00C01A5241411A00D26C
:1003C0000146634652415B10104601D34042002B68
:1003D00000D54942704763465B1000D3404201B5E7
:1003E000002000F005F802BD0029F8D016E770479C
:1003F0007047C046002B11D1002A0FD1002900D12F
:10040000002802D00021C943080007B4024802A115
:100410004018029003BDC046D9FFFFFF03B46846F1
:1004200001B5029800F006F8019B9E4602B00CBC94
:100430007047C046F0B557464E464546DE46E0B5E5
:1004400004000D009246994683B08B4230D82DD0DF
:100450004946504600F0BAF829000600200000F096
:10046000B5F8331A9846203B9B4633D45A46534638
:10047000934042461F00534693401E00AF423AD875
:10048000AF4200D178E05B46A41BBD41002B00DAEF
:1004900075E0002200230092019301235A46934005
:1004A0000193012342469340009328E08242CFD932
:1004B00000220023009201930C9B002B01D01C60B2
:1004C0005D600098019903B0F0BCBB46B246A946F6
:1004D000A046F0BD424620239B1A5246DA404146D0
:1004E00013004A468A40170042461F435346934032
:1004F0001E00AF42C4D9002200230092019343465C
:10050000002BD9D0FB0772081A4346467B080EE041
:10051000AB4201D1A2420CD8A41A9D41012024195A
:100520006D410021013E24184D41002E06D0AB4202
:10053000EED9013E24196D41002EF8D100980199A1
:100540005B4600196941002B24DB2B005A464446C8
:10055000D3402A00E2401C005B461500002B2ADB3A
:1005600026009E40330026004746BE403200801AD7
:100570009941009001919FE7A342BCD883E742468E
:10058000202300219B1A0022009101920122DA40CF
:10059000019286E7424620239B1A2A0046469A404B
:1005A0002300F340444613432A00E2401C005B460C
:1005B0001500002BD4DA42462F0020232600974056
:1005C0009B1ADE403B003343CDE7C04610B50029FF
:1005D00003D100F007F8203002E0080000F002F834
:1005E00010BDC0461C2101231B04984201D3000CFE
:1005F00010391B0A984201D3000A08391B09984296
:1006000001D30009043902A2105C40187047C046AB
:1006100004030202010101010000000000000000CB
:1006200010B502688023DB059A4200D010BD02F0AD
:1006300027F9FBE772B6FEE700B593B03822002138
:1006400004A804F0C1FF10220021684604F0BCFF9A
:100650008020800002F072F802230493802252006E
:10066000079200220892402109910B930C930D925E
:1006700006330E9380239B020F93C023DB04109359
:1006800080239B05119304A800F04AFD00280ED199
:1006900007230093053B0193002302930393022158
:1006A000684601F0E1F8002803D113B000BDFFF760
:1006B000C1FFFFF7BFFF10B502F0CEF8FFF7BCFF98
:1006C00000F010F800F0D6F800F0A6F800F0FAF804
:1006D00000F060F900F0A8F900F0F0F900F01EFA5F
:1006E000FEE77047F0B5D6464F464646C0B58AB0DD
:1006F0001422002105A804F067FF404B596B042227
:1007000011435963596B0A400092009A596B202299
:1007100011435963596B0A400192019A5A6B0126A1
:1007200032435A635A6B32400292029A5A6B022544
:100730002A435A635A6B2A400392039A596B082240
:10074000114359635B6B1A400492049B2C4B9A46ED
:1007500000220321180001F049FDB8235B019946EE
:10076000284B984600224946180001F03FFDE0233F
:100770001B020593002406940794234F05A9380013
:1007800001F0F6FB0323059306960794089405A948
:10079000504601F0EDFB4B460593069607940894EE
:1007A00005A9404601F0E4FB184B05930694079415
:1007B00005A9404601F0DCFB40230593069507940C
:1007C0000894099605A9380001F0D2FB802305930F
:1007D000069507940894099505A9380001F0C8FB0F
:1007E000072305930694079405A9094801F0C0FB67
:1007F0000AB0E0BCBA46B146A846F0BD00100240BF
:1008000000140050000400500008005008080000C8
:10081000000C00507047000010B50948094B0360F8
:10082000002303714371436183610133036200F06C
:10083000B1FB002800D110BDFFF7FCFEFBE7C0466E
:10084000900000200030024082B00268074B9A42BC
:1008500001D002B07047064A916B802040010143ED
:100860009163936B03400193019BF2E700300240D8
:100870000010024000B583B0114A916B0123194367
:100880009163926B13400193019B00220321092085
:1008900001F090FF092001F0C9FF002203210A2086
:1008A00001F088FF0A2001F0C1FF002203210B2084
:1008B00001F080FF0B2001F0B9FF03B000BDC0467E
:1008C0000010024000B589B01022002104A804F0F5
:1008D0007BFE0C22002101A804F076FE1648174B7F
:1008E0000360002343608360154AC2600361436173
:1008F000836102F0A1F9002814D180235B010493E5
:1009000004A90D4802F052FA00280ED100230193E9
:100910000293039301A9084802F076FC002807D14E
:1009200009B000BDFFF786FEE7E7FFF783FEEDE7BE
:10093000FFF780FEF4E7C046B4000020002C014021
:10094000FFFF000010B58EB004003422002101A882
:1009500004F03AFE22680D4B9A4201D00EB010BD51
:1009600080239B03019301A801F0F8F800280AD125
:10097000074A116C8020000101431164136C03408D
:100980000093009BEAE7FFF755FEF1E7002C0140DA
:100990000010024010B51F481F4B0360E1235B02AB
:1009A000436000238360C36003610C224261836162
:1009B000C36103624362836204F00AF800281DD118
:1009C0000021144804F056FA00281AD100211148D9
:1009D00004F0B0FA002817D10E4804F011FA0028EC
:1009E00015D10C4C0D4B0C220D49200003F007FFD4
:1009F0000C220C49200002F005FE10BDFFF71AFE84
:100A0000DEE7FFF717FEE1E7FFF714FEE4E7FFF785
:100A100011FEE6E77002002000380140FFFF0000F1
:100A2000F05500080056000810B51F481F4B036022
:100A3000E1235B02436000238360C36003610C22F7
:100A400042618361C36103624362836203F0C0FF5A
:100A500000281DD10021144804F00CFA00281AD1F6
:100A60000021114804F066FA002817D10E4804F05E
:100A7000C7F9002815D10C4C0D4B0C220D49200054
:100A800003F0BDFE0C220C49200002F0BBFD10BD9E
:100A9000FFF7D0FDDEE7FFF7CDFDE1E7FFF7CAFD89
:100AA000E4E7FFF7C7FDE6E7040300200044004049
:100AB000FFFF0000105600082056000810B512482D
:100AC000124B0360E1235B02436000238360C36039
:100AD00003610C2242618361C361036243628362EA
:100AE00003F076FF00280CD1074C094B0C22094972
:100AF000200003F084FE0C220749200002F082FD52
:100B000010BDFFF797FDEFE7980300200048004075
:100B1000FFFF0000305600084056000810B512488C
:100B2000124B0360E1235B02436000238360C360D8
:100B300003610C2242618361C36103624362836289
:100B400003F046FF00280CD1074C094B0C22094941
:100B5000200003F054FE0C220749200002F052FD51
:100B600010BDFFF767FDEFE72C040020004C0040AC
:100B7000FFFF0000505600086056000870B59CB09A
:100B800004001422002117A804F01EFD34220021C5
:100B90000AA804F019FD2368974A93420CD0974A9B
:100BA000934269D0964A934200D1C7E0954A934256
:100BB00000D1FAE01CB070BD01230A930AA800F02E
:100BC000CDFF00284FD1904B196C8020C00101430C
:100BD00019641A6C02400192019A596B0222114366
:100BE00059635B6B13400293029BC02317931892C7
:100BF000002519951A951B9517A9844801F0B8F995
:100C00008348844B0360322343608560C5604E3364
:100C1000036145618561C561056201F057FB0028EC
:100C200024D180227A4BA3509C627B487B4B03608B
:100C300033234360233B83600023C360026143612D
:100C40008361C361036201F041FB002811D1724B43
:100C5000E3679C62002203211B2001F0ABFD1B20F7
:100C600001F0E4FDA6E7FFF7E5FCACE7FFF7E2FCE7
:100C7000D7E7FFF7DFFCEAE702230A930AA800F0B0
:100C80006DFF002851D1604BD96B80208002014359
:100C9000D963DA6B02400392039A596B0122114324
:100CA00059635B6B13400493049B0C2317930A3B1B
:100CB0001893002519951A951B92A02017A9C00515
:100CC00001F056F95648574B036034234360856062
:100CD000C5604C33036145618561C561056201F002
:100CE000F5FA002824D180224D4BA3509C624E4837
:100CF0004E4B036035234360253B83600023C36074
:100D0000026143618361C361036201F0DFFA00287D
:100D100011D1454BE3679C62002203211C2001F0A6
:100D200049FD1C2001F082FD44E7FFF783FCAAE7A0
:100D3000FFF780FCD7E7FFF77DFCEAE7324BD96B82
:100D40008020C0020143D963DA6B02400592059A04
:100D50005A6B01252A435A635A6B2A400692069A17
:100D60005A6B022422435A635B6B23400793079B11
:100D700020231793189404261B96A02017A9C005BA
:100D800001F0F6F817951894002319931A931B96FF
:100D900017A91E4801F0ECF8002203211D2001F0E4
:100DA00009FD1D2001F042FD04E7174BD96B80209F
:100DB00000030143D963DA6B02400892089A596B29
:100DC0000122114359635B6B1A400992099B03236B
:100DD0001793013B189302331B93A02017A9C0055A
:100DE00001F0C6F8002203211D2001F0E3FC1D20C4
:100DF00001F01CFDDEE6C046003801400044004022
:100E000000480040004C0040001002400004005028
:100E100000010020080002405C0100201C0002408C
:100E2000B8010020300002401402002044000240BB
:100E3000FEE7FEE710B5024801F01AFC10BDC046FF
:100E40000001002010B5034801F012FC024801F037
:100E50000FFC10BD5C010020B801002010B5024855
:100E600001F006FC10BDC0461402002010B5024877
:100E700001F0DAFD10BDC046C004002010B50248E4
:100E800002F072FC10BDC0467002002010B502488E
:100E900002F06AFC10BDC0460403002010B50348F0
:100EA00002F062FC024802F05FFC10BD98030020D3
:100EB0002C04002000B583B00E4B196C01221143A5
:100EC0001964196C0A400092009ADA6B8021490576
:100ED0000A43DA63DB6B0B400193019B0220002283
:100EE0000321404201F066FCC020C00001F0DAFCA2
:100EF00003B000BD0010024030B587B00500204AA5
:100F0000D16B01231943D163D26B13400093009B33
:100F100001A902A800F0F2FD059B002B17D100F0FB
:100F2000D9FD1849FFF7F0F8431E17488022D20573
:100F30000260164AC26043600023036183608361DC
:100F400001F07AFE041E06D0200007B030BD00F08C
:100F5000C1FD4000E5E70C4801F0F6FC041EF3D1AA
:100F60000F2001F063FC032D01D90124ECE70022DE
:100F700029000F2001F01EFC054B1D60E4E7C04670
:100F80000010024040420F00C0040020E7030000B0
:100F90000400002010B5041E00D173E03A4B026833
:100FA0009A4203D070213948FFF79BFB637F002BE7
:100FB0003DD0022363772379012B3DD82379002B81
:100FC0003FD12368324A5A612268936818218B43C3
:100FD00093606379012B3DD86379002B3FD123685F
:100FE000012252421A616369002B05D0202B03D0E5
:100FF000402B01D0602B36D12268936860218B434F
:1010000061690B439360A369002B01D0802B2FD122
:101010002268936880218B43A1690B439360236A04
:10102000013B022B29D801236377002010BD2377D1
:101030002000FFF709FCBCE77E211448FFF751FBB5
:10104000BCE7E268A168200000F024F80028C0D0C6
:101050000120EBE790210D48FFF743FBBCE7236835
:1010600022691A61BFE79C210848FFF73AFBC3E7F2
:10107000A0210648FFF735FBCAE7A5210348FFF783
:1010800030FBD0E70120D1E7003002407056000865
:10109000B71DC104F8B507000D00161E05D0082ABB
:1010A00003D0102A01D0182A18D1EB072FD51F23FF
:1010B0001C00013B002C06D01F241C402A00E240EB
:1010C0001400E207F4D5102E1DD00ED8002E10D03B
:1010D000082E08D10F2B0CD9012019E05F210F48F1
:1010E000FFF7FFFAE1E7012012E0182E11D1062BDD
:1010F00011D83B685D613B689A6818218A431643A2
:101100009E60002004E0072BF3D9012000E00120BD
:10111000F8BD0120FCE70120FAE7C046A856000808
:1011200070B582B0041E00D10AE30368002B01D021
:101130001B073ED02368DB0751D56368002B07D01F
:1011400080225202934203D0A022D202934236D18F
:10115000C94A916838230B40D16803220A40102BFA
:1011600033D0082B33D0636880225202934200D1DF
:10117000BFE0A022D202934200D1C1E0BE4B1A6868
:10118000BE490A401A601A68BD490A401A6063687D
:10119000002B00D1C0E001F07FFB0500B64B1B68BF
:1011A0009B031CD401F078FB401B6428F6D9032074
:1011B000C7E2A1214900B348FFF793FABAE7A42197
:1011C0004900B048FFF78DFAC2E7032AC9D1AA4BFC
:1011D0001B689B0303D56368002B00D1B3E223682F
:1011E0009B075FD5E368002B04D080225200934216
:1011F00000D0A0E063697F2B00D9A2E02369002B17
:101200001CD080221201934218D0802252019342B6
:1012100014D0C0225201934210D0802292019342F6
:101220000CD0A0229201934208D0C0229201934296
:1012300004D0E0229201934200D088E08E4A936865
:1012400038210B40D16803220A40102B00D184E0E2
:10125000002B00D085E0884A1268520503D5E26869
:10126000002A00D171E28448426887490A406169D6
:1012700009020A434260002B0DD1036883490B40E9
:1012800021690B4303600368DB0A07221A40804B85
:10129000D340804A1360804B1868FFF72DFE00286A
:1012A00000D054E223681B0700D4A2E0A369012BFD
:1012B00000D990E0704B9A6838231340182B00D166
:1012C0008FE0A369002B00D1EEE06B4A136E012181
:1012D0000B43136601F0E0FA0500674B1B6E9B079A
:1012E00000D586E001F0D8FA401B0228F5D903208A
:1012F00027E2614A116880235B020B43136046E7D3
:101300005D4B19688022D2020A431A601968802254
:1013100052020A431A603AE701F0BEFA0500564B42
:101320001B689B0300D45AE701F0B6FA401B6428FF
:10133000F5D9032005E2BF2149005248FFF7D1F952
:1013400058E78021FF314F48FFF7CBF956E7C0211E
:1013500049004C48FFF7C5F970E7022A00D077E74B
:1013600079E7E368002B22D0434A136847490B40D2
:1013700021690B431360116880235B000B431360EA
:1013800001F08AFA05003C4B1B685B0506D401F0AE
:1013900083FA401B0228F6D90320D2E136494B6874
:1013A000394A13406269120213434B607AE7324AAA
:1013B00013683A490B40136001F06EFA05002E4B9A
:1013C0001B685B0500D46DE701F066FA401B02283C
:1013D000F5D90320B5E1EA2149002A48FFF781F950
:1013E00068E7254B1B6E9B0703D5A369002B00D133
:1013F000AFE123685B0700D4AFE0A368012B01D9FC
:10140000052B64D11C4B9A6838231340202B64D0E1
:10141000194BDB6BDB0069D4174AD16B8020400588
:101420000143D163D36B03400193019B01251C4B06
:101430001B68DB055CD5A368012B6DD0052B71D033
:101440000D4BDA6D01218A43DA65DA6D03318A4387
:10145000DA65A368002B6FD001F01EFA0600064B78
:10146000DB6D9B0777D401F017FA801B0D4B984278
:10147000F5D9032065E1C04600100240FFFFFEFFE2
:10148000FFFFFBFFE0560008FF80FFFFFFC7FFFFE5
:101490000024F4000800002004000020FFFEFFFFED
:1014A0000070004088130000B34A136E01218B4383
:1014B000136601F0F1F90500AF4B1B6E9B0798D541
:1014C00001F0EAF9401B0228F6D9032039E1832113
:1014D0008900AA48FFF705F994E7A74BDB6D9B0746
:1014E0003BD5A368002B38D101202AE100259EE7D7
:1014F000A34A116880235B000B43136001F0CCF911
:1015000006009F4B1B68DB0595D401F0C5F9801BD5
:101510000228F6D9032014E1974AD36D01210B4329
:10152000D36596E7944BDA6D04210A43DA65DA6DE8
:1015300003390A43DA658CE701F0AEF906008E4BF9
:10154000DB6D9B0707D501F0A7F9801B8D4B9842F7
:10155000F5D90320F5E0012D59D0E369022B5CD8C1
:10156000E369002B00D1F6E0834A916838220A40F3
:10157000102A00D1BCE0022B00D09FE0236A002B90
:1015800003D0022B01D0032B4CD1636A002B0DD06A
:10159000102B0BD0202B09D0302B07D0402B05D09F
:1015A000502B03D0602B01D0702B40D1A36A083B95
:1015B0004E2B41D8E36A744A94466344F022920366
:1015C00093423ED8236BFE22120694466344C02207
:1015D000120593423BD8636BE022120694466344A3
:1015E000C0221206934237D8634A136867490B40FA
:1015F000136001F051F905005F4B1B689B0131D569
:1016000001F04AF9401B0228F6D9032099E05A4A12
:10161000D36B5F490B40D3639FE75E495748FFF7A1
:1016200060F89DE75C495548FFF75BF8ADE75B491B
:101630005248FFF756F8B9E759495048FFF751F8B3
:10164000B8E7A52189004D48FFF74BF8BAE755499F
:101650004A48FFF746F8BEE7A62189004748FFF74A
:1016600040F8C1E7444AD3684F491940236A606A89
:101670000343A06A00020343E06A0343206B034371
:10168000606B03430B43D360116880235B040B43FF
:101690001360D16880235B050B43D36001F0FCF835
:1016A0000400354B1B689B0106D401F0F5F8001BC4
:1016B0000228F6D9032044E0002042E02E4A1368B5
:1016C00032490B40136001F0E7F804002A4B1B6815
:1016D0009B0106D501F0E0F8001B0228F6D9032093
:1016E0002FE0254AD36831490B40D360002028E021
:1016F000012B32D0204BDA6803231340216A8B423E
:101700002DD170231340616A8B422AD1FE21C90179
:101710001140A36A1B02994225D1F8239B03134071
:10172000E16A8B4221D1E0231B051340216B8B42E0
:101730001DD1520F5207636B9A421AD1002000E06C
:10174000012002B070BD0120FBE70120F9E7012074
:10175000F7E70120F5E70020F3E70120F1E701209A
:10176000EFE70120EDE70120EBE70120E9E70120A9
:10177000E7E70120E5E7C04600100240E056000818
:1017800000700040881300000000FEFFFFFFFFFE16
:10179000FFFFFFEF870200009102000092020000AD
:1017A00093020000960200008C80C111FCFFFEEE47
:1017B00010B52A4B9B6838221A4207D1274B1A686A
:1017C000D20A072313402648D84010BD234B9A68FD
:1017D00038231340082B3BD0204B9A683823134002
:1017E000102B0DD01D4B9A6838231340202B31D07D
:1017F0001A4B9A6838231340182B26D00020E4E7B0
:10180000164AD1680D3B0B40D268120907211140DE
:101810000131032B0FD01248FEF776FC0F4BDA682C
:10182000120A7F23134058430C4BD968490F0131EA
:10183000FEF76AFCC9E70B48FEF766FC074BDA685F
:10184000120A7F2313405843EEE7FA20C001BCE799
:101850000448BAE780200002B7E7C0460010024003
:101860000024F40000127A0070B504000D00002876
:1018700000D10CE103685A0702D00722934304D039
:10188000CC2189008448FEF72CFF022D53D8834BCE
:101890001A6807231340AB4252D323689A0731D505
:1018A0005B0705D57E4A9168E023DB010B4393601B
:1018B000A368002B1FD08022120193421BD001325B
:1018C000FF32934217D00132FF32934213D00132DC
:1018D000FF3293420FD00132FF3293420BD00132DC
:1018E000FF32934207D00132FF32934203D00132DC
:1018F000FF3293423BD16A4A93686A490B40A16820
:101900000B4393602368DB076ED56368012B05D911
:10191000042B03D0032B01D0022B2DD16368012BA4
:1019200030D0022B4CD0002B50D15D4A12685205AA
:101930002DD401208EE05C495748FEF7D2FEA6E781
:10194000564A136807218B432B43136000F0A4FF12
:101950000600524B1A6807231340AB429DD000F09B
:101960009BFF801B514B9842F3D9032072E05049F2
:101970004948FEF7B6FEBEE7D72189004648FEF784
:10198000B0FECBE7464A1268920300D481E0444996
:101990008A680720824313438B6000F07DFF0600B6
:1019A0003F4B9B6838221A406368DB009A421BD089
:1019B00000F072FF801B3D4B9842F1D9032049E0B3
:1019C000374A12689201E2D4012043E0032B05D08C
:1019D000334AD26D9207DAD401203BE0304A126ECE
:1019E0009207D4D4012035E02C4B1A68072313400A
:1019F000AB4230D823685B0719D5E368002B0FD0C2
:101A00008022D20193420BD0A022D201934207D070
:101A1000C022D201934203D0E022D201934231D1BD
:101A20001F4A936823490B40E1680B439360FFF71B
:101A3000BFFE1B4B9A68120A0F2313409B001E4ADD
:101A40009A581F231340D8401C4B18601C4B186831
:101A5000FFF752FA70BD114A136807218B432B43DD
:101A6000136000F019FF06000C4B1A68072313409F
:101A7000AB42BFD000F010FF801B0C4B9842F3D953
:101A80000320E7E70F490448FEF72BFEC8E70120D3
:101A9000E0E70120DEE7C046E056000800200240F3
:101AA00000100240FFF0FFFF310300008813000028
:101AB00055030000FF8FFFFF705900080800002049
:101AC00004000020AF030000014B18687047C046B7
:101AD0000800002010B5FFF7F7FF064B9A68120BBD
:101AE000072313409B00044A9A581F231340D840F1
:101AF00010BDC04600100240B059000870B5040087
:101B00000D00002816D0002D19D0072323600E4A9F
:101B10009168194061609168F02000010140A16066
:101B20009268E021C9010A40E260084A1268134045
:101B30002B6070BD06490748FEF7D3FDE3E7064971
:101B40000448FEF7CEFDE0E700100240002002400E
:101B50002E050000E05600082F050000F0B583B008
:101B60000400424B02681A4235D023689B0300D41C
:101B70008CE0236B002B0BD080225200934207D0C5
:101B80000132FF32934203D00132FF32934227D118
:101B9000374BDB6BDB0028D4354AD16B8020400506
:101BA0000143D163D36B03400193019B0126314A6A
:101BB000116880235B000B43136000F06DFE05008D
:101BC0002C4B1B68DB0512D400F066FE401B02287C
:101BD000F6D903250CE078212748FEF782FDC4E7FB
:101BE00080212548FEF77DFDD2E70026DFE70025AE
:101BF000002D23D11E4BD96DC02292000B00134043
:101C0000114210D0226B9A420DD0194AD36D1B4954
:101C10000B40D06D802149020143D165D16D184838
:101C20000140D165D365DB0710D4002D06D1104AE1
:101C3000D36D12490B40216B0B43D365012E26D186
:101C40000B4AD36B0F490B40D36320E000F024FE16
:101C50000700074BDB6D9B07E7D400F01DFEC01BA0
:101C6000094B9842F5D90325DFE7C046334E6A0099
:101C7000001002400070004018570008FFFCFFFFF2
:101C8000FFFFFEFFFFFFFFEF881300000025236822
:101C9000DB070ED56368012B04D9032B02D0022B7E
:101CA00000D0FAE0A94A536D03218B4361680B43CE
:101CB000536523689B0710D5A368002B06D0042B1F
:101CC00004D00C2B02D0082B00D0EBE09F4A536DC0
:101CD0000C218B43A1680B4353652368DB0616D5A3
:101CE000E368002B0CD08022D200934208D0C0229F
:101CF0001201934204D080221201934200D0D6E018
:101D0000924A536D92490B40E1680B435365236837
:101D10009B0516D5A369002B0CD08022D2029342DA
:101D200008D080221203934204D0C02212039342AF
:101D300000D0C1E0854A536D86490B40A1690B4331
:101D4000536523685B0516D5E369002B0CD0802210
:101D50005203934208D080229203934204D0C022BF
:101D60009203934200D0ADE0784A536D7A490B401C
:101D7000E1690B43536523689B0612D52369002B49
:101D800008D080225201934204D0802292019342D3
:101D900000D09DE06D4A536D70490B4021690B43A3
:101DA000536523685B0418D5236A8022D2059342C9
:101DB00006D0002B04D080221206934200D08DE082
:101DC000624A536D9B009B08216A0B435365802335
:101DD000DB05226A9A4200D186E023681B030CD5FA
:101DE000636A002B02D0402B00D084E0574A536D29
:101DF00040218B43616A0B43536523689B0214D5D2
:101E0000A36A8022D203934202D0002B00D078E054
:101E10004E4A536D52490B40A16A0B4353658023D0
:101E2000DB03A26A9A4200D171E023685B0213D5FA
:101E3000E36A80225204934202D0002B00D06DE06E
:101E4000424A536D47490B40E16A0B435365802377
:101E50005B04E26A9A4267D023681B051AD563695E
:101E6000002B0BD08022D201934207D08022120295
:101E7000934203D0C022120293425AD1334A536D87
:101E800039490B4061690B43536562698023DB016B
:101E90009A4254D0280003B0F0BDD6213348FEF753
:101EA00020FCFFE6E1213148FEF71BFC0EE7F9219B
:101EB0002E48FEF716FC23E7882149002B48FEF741
:101EC00010FC37E71A21FF312848FEF70AFC4BE7E0
:101ED000912149002548FEF704FC5BE7A321490056
:101EE0002248FEF7FEFB6BE7184AD16880235B02AD
:101EF0000B43D36071E75821FF311C48FEF7F1FB1B
:101F000074E76421FF311948FEF7EBFB80E70F4AC5
:101F1000D16880235B040B43D36086E77621FF31D1
:101F20001248FEF7DEFB8BE7084AD1680B43D3600B
:101F300092E7C32149000D48FEF7D3FB9EE7034A11
:101F4000D16880235B020B43D360A3E700100240FB
:101F5000FFF3FFFFFFFFF3FFFFFFCFFFFFCFFFFF09
:101F6000FFFFBFFFFFFFFFFEFF3FFFFF1857000807
:101F7000F0B5C64600B507000C00A023DB0598426B
:101F80000FD0944B98420CD0934B984209D0934B6E
:101F9000984206D0924B984203D0A9219148FEF76F
:101FA000A0FB23681A0401D01B0C03D0AA218D4882
:101FB000FEF797FB6368012B1FD9112B1DD0022B55
:101FC0001BD0122B19D088225203934215D08422A1
:101FD0009203934211D0C422920393420DD09022D7
:101FE0005203934209D088229203934205D0C8221B
:101FF0009203934201D0032B01D100258AE0AB214B
:102000007848FEF76EFBF8E7E368032B13D8BB684C
:10201000690003228A4093431A00E3688B4013430C
:10202000BB607A68B2436368190901230B40AB4077
:1020300013437B6080E0BA216A48FEF752FBE6E773
:10204000CC216848FEF74DFB7FE0A023DB059F42D3
:102050000FD0604B9F420CD05F4B9F4209D05F4B2B
:102060009F4206D05E4B9F4203D0D9215D48FEF7C8
:1020700038FB2369072B0FD8EA0808329200D159A0
:1020800007232B409B000F209840814320699840F4
:1020900003000B43D35168E0DA215248FEF721FBDD
:1020A000EAE7032100E0002191400A0002434E4983
:1020B00018339B005A500A684346DB4311004046E0
:1020C00081436068C00201D541461143464A116010
:1020D0005268110019406068800201D541461143E1
:1020E000414A5160842152581100194060688003B0
:1020F00001D5414611433C4A842011508021525859
:1021000013406168C90301D5434613433649802211
:102110008B50013523681A00EA4057D00126AE40A3
:102120001A00324090463342F3D0032362681340D2
:10213000013B012B00D867E7032362681340032BA0
:102140000DD0A368022B00D97AE7FB68690003224F
:102150008A4093431A00A3688B401343FB60032318
:1021600062681340022B00D16FE73A6869000323CD
:10217000180088408243606803408B4013433B60F3
:10218000C0239B0262681A42C3D0AB081A001832FF
:1021900092001549505803222A40D2000F21914045
:1021A0008843A021C9058F4200D17CE709498F42AD
:1021B00008D009498F4207D008498F4200D170E703
:1021C000052171E701216FE702216DE780BCB84668
:1021D000F0BDC0460004005000080050000C005044
:1021E00000140050505700080018024070B5060057
:1021F0000C001500002905D0012D09D8002D0DD0A7
:10220000B46170BD9821FF310548FEF76AFAF3E723
:10221000CC2149000248FEF764FAEFE7B462F0E728
:1022200050570008F0B5846CC56C6560046D002CD7
:1022300002D0446D856D65600B4F7C681C26056C73
:102240002E400125B5402C437C60046863608368A0
:10225000102B04D0036899600368DA60F0BD03684E
:102260009A600368D960F9E70000024010B50400E5
:10227000036C9B08094A944663449B004364FF2017
:102280002368184008381421FDF73EFF044BA3646F
:102290001F2318401E3B8340E36410BD00820010E2
:1022A000800802403F2342681340064A9A18920071
:1022B0000265054A4265013B03221A40012393400F
:1022C000836570473F8200104009024070B5041ECC
:1022D00000D1D5E003686B4A934215D06A4A934215
:1022E00012D06A4A93420FD0694A93420CD0694A8D
:1022F000934209D0684A934206D0684A934203D079
:10230000A1216748FEF7EDF9A368002B06D0102B3A
:1023100004D08022D201934200D07CE0E368402BBD
:1023200002D0002B00D07BE02369802B02D0002B51
:1023300000D07AE06369002B08D0802252009342DB
:1023400004D00132FF32934200D073E0A369002B26
:1023500008D08022D200934204D0802212019342FE
:1023600000D06CE0E369002B02D0202B00D06BE0A2
:10237000236A002B0BD080225201934207D0802287
:102380009201934203D0C0229201934261D16368CB
:102390003D2B63D82568434BE8181421FDF7B4FEA4
:1023A0008000206425230222E2542B683E4A134019
:1023B0002B6021680A68A368E0680343206903432F
:1023C00060690343A0690343E0690343206A034350
:1023D00013430B602000FFF749FF8023DB01A26855
:1023E0009A4240D0626C3F2361680B401360A36C3B
:1023F000E26C5A606368013B032B37D900232365E5
:102400006365A3650023E36325220121A154013AFA
:10241000A354002070BDA2212148FEF762F97DE798
:10242000A3211F48FEF75DF97EE7A4211C48FEF7B3
:1024300058F97FE7A5211A48FEF753F986E7A62148
:102440001748FEF74EF98DE7A7211548FEF749F921
:102450008EE7A8211248FEF744F998E7AA21104810
:10246000FEF73FF996E700236360BBE72000FFF724
:1024700019FF236D00221A60636DA26D5A60C1E7D7
:102480000120C7E7080002401C0002403000024063
:1024900044000240580002406C00024080000240AC
:1024A00088570008F8FFFDBF0F80FFFFF8B5040054
:1024B0000E0017001D005A1E2B4B9A4211D82423E0
:1024C000E35C012B4ED024230122E2540133E35C70
:1024D000012B0CD08023E3635C3B0022E2540120FB
:1024E000F8BDB821FF312148FEF7FBF8E7E72433B8
:1024F0000132E2540023E3632268136801218B4315
:1025000013602B003A0031002000FFF78BFE236B95
:10251000002B1CD0226813680E210B431360636CE0
:102520001A68D20304D51968802252000A431A603F
:10253000236D002B04D01968802252000A431A60D0
:102540002268136801210B4313600020C8E722684A
:10255000136804218B4313602268136806310B4310
:102560001360DCE70220BBE7FDFF0000885700088E
:1025700030B5002836D02523C35C022B06D00423B7
:10258000C36320330022C254012030BD02681368A7
:102590000E218B431360426C136813490B40136088
:1025A00001680A6801239A430A60104C62681C2182
:1025B000056C29408B4013436360836CC26C5A6086
:1025C000036D002B06D01A6807490A401A60436D54
:1025D000826D5A6025230122C254013B0022C2545D
:1025E0000020D2E70120D0E7FFFEFFFF00000240FD
:1025F00070B52523C35C022B03D00423C3630120E1
:1026000070BD026813680E218B43136001680A686D
:1026100001239A430A60416C0A68134C22400A6005
:10262000124C62681C21056C29408B401343636087
:10263000836CC26C5A60036D002B06D01A680A497D
:102640000A401A60436D826D5A6025230122C254EC
:10265000013B0022C254836B002B02D0984700201C
:10266000CEE70020CCE7C046FFFEFFFF000002409F
:1026700070B5314B1968046825681C23026C13403F
:1026800004229A40114216D06A0714D523689B068B
:1026900003D42368042293432360274C63681C21DE
:1026A000026C114004228A4013436360036B002BC9
:1026B00000D0984770BD02229A4011421CD0AA0750
:1026C0001AD523689B0606D423680A229343236005
:1026D0002523093AC254184C63681C21026C11402E
:1026E00002228A401343636024230022C254C36A37
:1026F000002BDFD09847DDE708229A401142D9D05D
:102700002B07D7D523680E22934323600A4C6268B7
:102710001C21036C194001231D008D402A43626077
:10272000C3632522835423330022C254436B002BFE
:10273000C0D09847BEE7C0460000024010B5040074
:1027400080239B00984203D08023DB0098420BD16A
:10275000124A136812490B402343136080239B00E5
:102760009C4206D0002010BD0E490F48FDF7B9FF6E
:10277000EEE70E4B1B685800C01840000C49FDF7EF
:10278000C3FC0130054B5B695B0503D5002803D012
:102790000138F7E70020E6E70320E4E70070004097
:1027A000FFF9FFFFFE020000C057000808000020EC
:1027B00040420F0070B504000D00032913D8002C0F
:1027C00016DBA308164EC0339B0099590320044022
:1027D000E400FF221000A0408143AD012A40A24046
:1027E0000A439A5170BD89210E48FDF77AFFE6E74A
:1027F0000F232340083B9B0806339B000A4A94465C
:1028000063445A6803200440E400FF210800A0400C
:102810008243AD010D40A54015435D60E2E7C0462F
:1028200000E100E0F857000800ED00E010B5041EDC
:1028300008DB002C05DB1F2004400123A340044AD1
:10284000136010BD97210348FDF74BFFF1E7C04629
:1028500000E100E0F857000810B5084A116880232D
:102860005B000B4313600320FEF746FB041E02D0FF
:102870000124200010BDFEF71DFBFAE700200240F6
:10288000034B1B78034A11685B1813607047C046FE
:10289000000000200C050020014B18687047C0465E
:1028A0000C05002010B5040080239B00984207D03F
:1028B0008023DB00984203D0C023DB00984206D17E
:1028C000054B1868054A104004431C6010BD0449BC
:1028D0000448FDF706FFF3E700000140FFF9FFFFA2
:1028E000E10200003058000830B5036A046A01258F
:1028F000AC4304628469EF35AC43120122430A24DD
:10290000A3430B438261036230BD000030B5036A0C
:10291000046A1025AC4304628469054D2C401203FF
:102920002243A024A343090119438261016230BDFF
:10293000FF0FFFFF8368034A13400B4307210B433C
:10294000836070478FFFCFFF10B5040003682A4AE9
:1029500093421DD08022D205934219D0274A934238
:1029600016D0274A934213D0264A934210D0264AC3
:1029700093420DD0254A93420AD0254A934207D06C
:10298000244A934204D0DC21FF312348FDF7A9FEFD
:102990003D23E35C012B29D13C330222E25422681F
:1029A000D36801210B43D3602368134A93420FD0AD
:1029B0008022D20593420BD0104A934208D0134A8A
:1029C000934205D01A6801210A431A6000200EE0E4
:1029D0009A6812490A40062A0AD007398A4209D061
:1029E0001A6801210A431A60002000E0012010BD8E
:1029F0000020FCE70020FAE7002C01400004004022
:102A00000010004000140040002000400040014041
:102A100000440140004801406458000807000100DC
:102A2000704770477047704770B504000368DE68F0
:102A30001D69AA070ED5B2070CD5032252421A61AE
:102A40000123037703689B699B0757D0FFF7E9FFD2
:102A5000002323776B0712D5730710D5236805224F
:102A600052421A610223237723689A69C0239B008C
:102A70001A4249D02000FFF7D4FF002323772B0709
:102A800010D533070ED52368092252421A61042358
:102A900023772368DB699B073DD02000FFF7C1FF48
:102AA00000232377EB0612D5F30610D523681122F5
:102AB00052421A61082323772368DA69C0239B00F6
:102AC0001A422FD02000FFF7ACFF00232377EB073B
:102AD00001D5F3072DD482239B011D4201D033067B
:102AE0002FD4EB0501D5330632D46B0601D573061E
:102AF00035D4AB0601D5B30639D470BDFFF790FFCE
:102B00002000FFF78FFFA3E72000FFF789FF2000D9
:102B1000FFF788FFB1E72000FFF782FF2000FFF7F3
:102B200081FFBDE72000FFF77BFF2000FFF77AFF62
:102B3000CBE72368022252421A612000FDF770FDA4
:102B4000C9E723680E4A1A61200000F02CFCC8E790
:102B500023680C4A1A61200000F026FCC5E72368B0
:102B6000412252421A612000FFF75DFFC1E723684E
:102B7000212252421A61200000F014FCBDE7C04639
:102B80007FDFFFFFFFFEFFFF0368244A904206D06D
:102B90008022D205904202D0214A904203D1702275
:102BA00093434A6813431D4A904212D08022D205B3
:102BB00090420ED01A4A90420BD01A4A904208D046
:102BC000194A904205D0194A904202D0184A9042C0
:102BD00003D1184A1340CA681343802293434A69B9
:102BE000134303608B68C3620B6883620B4B98428C
:102BF00008D00D4B984205D00C4B984202D00C4B9C
:102C0000984201D10B6903630123436102691342B6
:102C100003D003690122934303617047002C0140F4
:102C200000040040002000400040014000440140FA
:102C300000480140FFFCFFFF70B5041E00D193E087
:102C400003684A4A93421DD08022D205934219D08C
:102C5000474A934216D0474A934213D0464A93427A
:102C600010D0464A93420DD0454A93420AD0454A75
:102C7000934207D0444A934204D08F2149004348ED
:102C8000FDF72FFDA368002B07D0102B05D0202BBC
:102C900003D0402B01D0602B42D12369002B07D0F9
:102CA00080225200934203D00132FF3293423DD141
:102CB0008023DB0522689A423ED0E3685A1E002337
:102CC000334991425B41DBB2002B3AD0A369002B20
:102CD00001D0802B3BD13D23E35C002B3DD03D2533
:102CE00002236355210001C9FFF74EFF012348224B
:102CF000A3540A3AA3540132A3540132A35401321B
:102D0000A3540132A3540132A3540132A35401321B
:102D1000A3540132A3540132A3546355002070BD63
:102D20002021FF311948FDF7DCFCB6E7902149006E
:102D30001648FDF7D6FCBBE7E3685A1E9341DBB2A9
:102D4000C2E72221FF311148FDF7CBFCBEE79121FC
:102D500049000E48FDF7C5FCBDE73C330022E254B4
:102D60002000FDF7EFFDBAE70120D8E7002C014075
:102D7000000400400010004000140040002000400B
:102D800000400140004401400048014064580008F0
:102D9000FEFF000030B58468034D2C401B02134336
:102DA0000B432343836030BDFF00FFFF70B5040079
:102DB0000D003C23C35C012B00D10FE23C23012218
:102DC000C25401330132C2540B6880225201934233
:102DD00013D0702B11D08022920193420DD0402B42
:102DE0000BD0502B09D0602B07D0002B05D0102B17
:102DF00003D0202B01D0302B3CD122689368A1490D
:102E00000B4093602B68602B00D16BE164D8402BA2
:102E100000D19CE133D9502B5CD123689A4A93426C
:102E20000DD08022D205934209D0984A934206D011
:102E3000974A934203D097499748FDF752FC6B6835
:102E400080221202934206D0002B04D0022B02D023
:102E50000A2B00D00CE1EB680F2B00D90DE1EA68DA
:102E600069682068FFF740FD50212068FFF762FD88
:102E700000200AE089498848FDF733FCBDE7202B94
:102E80000ED009D9302B0BD001203D230122E25472
:102E9000013B0022E25470BD002B01D0102B17D152
:102EA0002368794A93420DD08022D205934209D0FB
:102EB000764A934206D0764A934203D078497648C0
:102EC000FDF70FFC29682068FFF734FD0020DCE7E0
:102ED0000120DAE70120D8E78022520193427DD019
:102EE0008022920193423CD12368674A93420AD0E0
:102EF0008022D205934206D0644A934203D06949A6
:102F00006548FDF7EEFBAB68002B0CD08022520128
:102F1000934208D080229201934204D0C0229201B1
:102F2000934200D095E06B6880221202934206D053
:102F3000002B04D0022B02D00A2B00D08EE0EB68CD
:102F40000F2B00D98FE0EB686A68A9682068FFF74B
:102F500021FF226891688023DB010B4393600020EE
:102F600093E7702B38D12368474A93420AD08022D6
:102F7000D205934206D0454A934203D04A49464877
:102F8000FDF7AFFBAB68002B0BD0802252019342C0
:102F900007D080229201934203D0C0229201934233
:102FA00048D16B6880221202934205D0002B03D0D7
:102FB000022B01D00A2B42D1EB680F2B44D8EB68CF
:102FC0006A68A9682068FFF7E5FE226893687721A0
:102FD0000B439360002058E7012056E723682A4AF4
:102FE000934200D1E8E08022D205934200D1E5E08F
:102FF000264A934200D1E3E02C4A934200D1E1E01B
:103000002B4A934200D1DFE02A4A934200D1DDE00F
:103010001F4A934200D1DBE0274A934200D1D9E016
:10302000264A934200D1D7E025491B48FDF759FBBA
:1030300000202AE723491848FDF753FBB1E722494E
:103040001548FDF74EFBB7E720491348FDF749FB4C
:10305000B5E71F491048FDF744FB64E71D490E48DA
:10306000FDF73FFB6BE71C490B48FDF73AFB6AE7AE
:103070001A490948FDF735FBEDE619490648FDF701
:1030800030FBECE68800CEFF002C0140000400403D
:1030900000400140B215000064580008731500009C
:1030A000E51500009E150000861500000010004088
:1030B000001400400020004000440140004801404E
:1030C0007F150000891500008A1500008B1500008F
:1030D000A1150000A2150000A3150000B515000001
:1030E000B615000023683E4A93420DD08022D205D7
:1030F000934209D03B4A934206D03B4A934203D0C5
:103100003A493B48FDF7EDFA6B6880221202934280
:1031100005D0002B03D0022B01D00A2B0DD1EB6878
:103120000F2B0FD8EA6869682068FFF7EFFB602172
:103130002068FFF7FFFB0020A7E62E492C48FDF78B
:10314000D0FAECE72C492A48FDF7CBFAEAE72368E6
:10315000234A93420DD08022D205934209D0214ABE
:10316000934206D0204A934203D024492048FDF7D9
:10317000B8FA6B6880221202934205D0002B03D06C
:10318000022B01D00A2B0DD1EB680F2B0FD8EA6868
:1031900069682068FFF7A8FB40212068FFF7CAFB99
:1031A000002072E616491248FDF79BFAECE7154934
:1031B0000F48FDF796FAEAE7002066E6002064E68D
:1031C000002062E6002060E600205EE600205CE66B
:1031D00000205AE6002058E6002056E602205AE673
:1031E000002C01400004004000400140C2150000D6
:1031F00064580008C5150000C6150000D21500006F
:10320000D5150000D6150000F8B504000D000368C0
:103210005A4A934214D08022D205934210D0584A81
:1032200093420DD0574A93420AD0574A934207D04F
:10323000564A934204D0F721C9005548FDF751FA88
:103240002B68002B0DD0102B0BD0202B09D0302B4E
:1032500007D0402B05D0502B03D0602B01D0702B12
:1032600036D1AB68802B01D0002B36D13C23E35CF8
:10327000012B00D17FE03C230122E25401330132D3
:10328000E25423685E689F683C4A93422AD07023C8
:103290009E432B681E4323685E602368374A93422F
:1032A00009D08022D205934205D0354A934202D0FC
:1032B000364A934204D180229743AA6817439F60FD
:1032C0003D230122E254013B0022E2540020F8BDDC
:1032D00030492F48FDF705FAC3E72F492C48FDF781
:1032E00000FAC3E76B68002B3BD080225203934265
:1032F00037D080229203934233D0C022920393426C
:103300002FD08022D20393422BD0A022D20393420B
:1033100027D0C022D203934223D0E022D20393428B
:103320001FD08022120493421BD090221204934299
:1033300017D0A0221204934213D0B0221204934259
:103340000FD0C022120493420BD0D0221204934219
:1033500007D0E0221204934203D0F02212049342D9
:1033600004D10E4B1E406B681E4390E70C49084881
:10337000FDF7B7F9F5E70220A9E7C046002C0140A8
:1033800000040040001000400014004000400140D4
:103390009C580008B9070000BA070000FFFF0FFFA4
:1033A000CC070000704770477047000030B5EFF35E
:1033B0001084012282F3108801680B68C025AB439A
:1033C0000B6084F31088EFF3108182F31088026899
:1033D0009368044C2340936081F310888823202253
:1033E000C25030BDFFFF7FFF30B5EFF310840122E4
:1033F00082F3108801680B68124D2B400B6084F338
:103400001088EFF3108182F31088026893680E4CE5
:103410002340936081F31088C36E012B06D08C2368
:103420002022C2500023C366436730BDEFF31081F2
:1034300083F31088026813681024A343136081F398
:103440001088ECE7DFFEFFFFFEFFFFEF10B58823DB
:10345000C358212B00D010BD3533C35A9BB2002B6B
:1034600017D1EFF3108C012282F3108801680B68EA
:103470008024A3430B608CF31088EFF3108182F358
:1034800010880268136840200343136081F310889A
:10349000E1E7036D1A7803689A62036D01330365EF
:1034A0005622835A013B9BB28352D4E710B588233E
:1034B000C358212B00D010BD3533C35A9BB2002B0B
:1034C00017D1EFF3108C012282F3108801680B688A
:1034D0008024A3430B608CF31088EFF3108182F3F8
:1034E00010880268136840200343136081F310883A
:1034F000E1E7036D1B880268DB05DB0D9362036D5A
:10350000023303655622835A013B9BB28352D2E7B2
:1035100010B58823C358212B00D010BD4933C35A9E
:1035200019E0EFF3108C013282F3108801688B6888
:10353000144C23408B608CF31088EFF3108182F3DE
:1035400010880268136840200343136081F31088D9
:10355000E3E7013B9BB2002BDFD05622825A92B2A6
:10356000002ADED00268D1690906F2D5016D09781A
:103570009162026D013202655621425A013A92B2BD
:103580004252E6E7FFFF7FFF10B58823C358212B87
:1035900000D010BD4933C35A19E0EFF3108C01324B
:1035A00082F3108801688B68154C23408B608CF384
:1035B0001088EFF3108182F31088026813684020AE
:1035C0000343136081F31088E3E7013B9BB2002BB8
:1035D000DFD05622825A92B2002ADED00168CA6930
:1035E0001206F2D5026D1288D205D20D8A62026DE2
:1035F000023202655621425A013A92B24252E4E73F
:10360000FFFF7FFF10B58823C358202B52D100291C
:1036100052D0002A52D0836880246401A34204D18E
:103620000469002C01D1CC074AD4016554214252CF
:1036300002314252002282673A31425088326F3959
:10364000815080229205416E914213D08022520116
:10365000934229D01B4B8367EFF31081012383F33F
:1036600010880268136880200343136081F3108878
:10367000002020E08022520193420FD0124B83673A
:10368000EFF31081012383F3108802689068802390
:103690001B040343936081F31088E9E70369002B5F
:1036A000ECD10A4B8367EBE70369002BD2D1084BBF
:1036B0008367D1E7022010BD0120FCE70120FAE773
:1036C0000120F8E74D34000811350008893500085D
:1036D000AD34000810B5EFF31081012383F3108897
:1036E000026813684024A343136081F31088882381
:1036F0002022C2500023836701F080FE10BD704776
:1037000070B5846A8823E2580433E55823689B68BF
:103710001B0601D5212A0ED023689B685B0601D5C4
:10372000222D0FD09022A35810210B43A35020002C
:1037300001F01AFE70BD56230022E2522000FFF76E
:1037400035FEE9E75E230022E2522000FFF74CFE3F
:10375000E8E710B5806A00235E228352083A83525C
:1037600001F002FE10BD7047F8B504000268D3698D
:1037700010689568BD491E000E400B4205D19906A0
:1037800003D581062CD4E9002AD4002E07D0B849ED
:103790002E000E400D4229D1B649084226D1E16ED5
:1037A000012900D1AAE0D90202D5690200D543E17E
:1037B0001A0605D5020600D545E12A0200D542E1E8
:1037C0005A0602D5420600D544E11A0202D542004B
:1037D00000D543E1DB0102D5002800DA42E1F8BD63
:1037E000636F002BFBD020009847F8E7D90707D577
:1037F000C10505D501271762902162583A436250EE
:103800009A0709D5EA0707D52268022111628E318D
:10381000625804273A4362505A0709D5EA0707D588
:103820002268042111628C31625802273A436250A7
:103830001A070AD5820601D4002E06D0226808266F
:10384000166290216258324362501A050AD542012D
:1038500008D5226880210901116290216258202632
:10386000324362509022A258002AB8D09B0608D555
:10387000830601D4EB0004D5636F002B01D0200038
:1038800098479023E25823689B685B0602D428235C
:1038900013422CD02000FFF7A7FD23689B685B062E
:1038A00021D5EFF31081012383F3108822689368F8
:1038B00040208343936081F310888023E358002BDA
:1038C0000DD06D4A9A638023E058FEF791FE0028E0
:1038D00000D184E78023E058836B98477FE720007E
:1038E00001F042FD7BE7200001F03EFD77E720007C
:1038F00001F03AFD90230022E25070E7D90600D48F
:1039000051E7C10600D44EE71023136223689B6879
:103910005B0655D58023E25813685B689BB2002B89
:1039200000D15CE75C21615A994200D857E75E21DB
:10393000635213681B689B060BD5022323675A3317
:10394000E15A0233E35AC91A89B22000FFF70BFF8C
:1039500045E7EFF31080012383F3108821680A689C
:10396000464D2A400A6080F31088EFF3108083F3FD
:10397000108821688A689A438A6080F31088EFF380
:10398000108083F3108821688A684235FF35AA4386
:103990008A6080F310888C222021A1500022E266E8
:1039A000EFF3108183F3108822681368102083439B
:1039B000136081F310888023E058FEF7D9FDBCE73F
:1039C0005C23E15A0233E25A891A89B2E35A9BB264
:1039D000002B00D103E7002900D100E7EFF31085A9
:1039E000012383F3108820680268254E324002606C
:1039F00085F31088EFF3108583F3108820688268C0
:103A0000204E3240826085F310888C222020A05006
:103A10000022E2666267EFF3108083F31088226869
:103A200013681025AB43136080F3108802232367CB
:103A30002000FFF798FED2E680235B03136220008C
:103A400001F0DAF9CBE6A36F002B00D1C7E6200026
:103A50009847C4E62000FFF73DFEC0E6200001F0D5
:103A6000CDF9BCE6200001F0C8F9B8E60F08000067
:103A7000010000102001000453370008FFFEFFFF83
:103A8000DFFEFFFFFEFFFFEF10B56023C35A8C225D
:103A90008258222A05D00268936908210B4393615A
:103AA00010BD0268526ADBB21340826D1370836DE1
:103AB000013383655E22835A013B9BB28352835A52
:103AC0009BB2002BECD1EFF3108C5D3A82F310889F
:103AD00001680B68224C23400B608CF31088EFF3D5
:103AE000108C82F3108801688B6893438B608CF391
:103AF00010888C231F32C25000234367036703687A
:103B0000184A93420ED05B681B020BD5EFF310816D
:103B1000012383F3108802681368134C2340136059
:103B200081F31088C36E012B17D10023C366EFF316
:103B30001084013383F3108801680B6810229343CB
:103B40000B6084F310880368D9690A4200D01A62B6
:103B50005C23C15AFFF707FEA2E701F091FC9FE743
:103B6000DFFEFFFF00800040FFFFFFFB10B560237A
:103B7000C25A2C33C358222B05D0026893690821FE
:103B80000B43936110BD03685B6A1340826D138021
:103B9000836D023383655E22835A013B9BB283525D
:103BA000835A9BB2002BEDD1EFF3108C5D3A82F378
:103BB000108801680B68234C23400B608CF310883D
:103BC000EFF3108C82F3108801688B6893438B604D
:103BD0008CF310888C231F32C25000234367036785
:103BE0000368194A93420ED05B681B020BD5EFF3B2
:103BF0001081012383F3108802681368134C23405B
:103C0000136081F31088C36E012B17D10023C366A4
:103C1000EFF31084013383F3108801680B681022DE
:103C200093430B6084F310880368D9690A4200D07B
:103C30001A625C23C15AFFF796FDA3E701F020FC4E
:103C4000A0E7C046DFFEFFFF00800040FFFFFFFB54
:103C5000F0B5CE46474680B583B004006023C35A12
:103C600001930368DD691A6890469A6891468C2230
:103C70008258222A08D09A6908210A439A6103B01F
:103C8000C0BCB946B046F0BD6823C65A54E0902384
:103C9000E358002B00D08EE05E23E35A9BB2002B4A
:103CA0004AD1EFF31080012282F3108821680B685B
:103CB000594F3B400B6080F31088EFF3108182F383
:103CC00010882268936855480340936081F31088F8
:103CD0008C232022E2500023636723672368504A25
:103CE00093420ED05B681B020BD5EFF310810123CA
:103CF00083F31088226813684A480340136081F3F5
:103D00001088E36E012B5DD10023E366EFF3108092
:103D1000013383F3108821680B68102293430B60F2
:103D200080F310882368D9690A4200D01A625C23A4
:103D3000E15A2000FFF717FD002E47D0AB0645D50E
:103D400023685B6A6A4612791340A26D1370A36DF3
:103D50000133A3655E22A35A013B9BB2A3522368A1
:103D6000DD696A0798D0EA0708D54246D20505D52D
:103D7000012119629022A3580B43A350AB070AD527
:103D80004B46DB0707D5236802221A628E32A358FE
:103D900004210B43A3506B0700D478E74B46DB07A5
:103DA00000D474E7236804221A628C32A3580221DB
:103DB0000B43A3506BE7200001F0D6FA90230022BA
:103DC000E25069E7200001F05BFBB5E75E23E35AB0
:103DD0009BB2002B00D152E76822A25A9A4200D827
:103DE0004DE7EFF31080012282F3108821688B6881
:103DF0000D4D2B408B6080F310880C4B6367EFF305
:103E0000108182F310882268136820200343136016
:103E100081F3108833E7C046FFFEFFFFFEFFFFEF90
:103E200000800040FFFFFFFBFFFFFFEF893A000823
:103E3000F8B5DE4657464E464546E0B504006023D9
:103E4000C55A0368DF691A6890469A6891468C22C1
:103E50008258222A09D09A6908210A439A61F0BC43
:103E6000BB46B246A946A046F8BD6823C65A57E0ED
:103E70009023E358002B00D08FE05E23E35A9BB2DF
:103E8000002B4DD1EFF3108001339B4683F3108854
:103E900021680B689A46594B52461A400A6080F3D3
:103EA0001088EFF310818BF31088226893685448D0
:103EB0000340936081F310888C232022E25000237A
:103EC0006367236723684F4A93420ED05B681B02E7
:103ED0000BD5EFF31081012383F310882268136858
:103EE00049480340136081F31088E36E012B5BD1D6
:103EF0000023E366EFF31080013383F31088216819
:103F00000B68102293430B6080F310882368D969F3
:103F10000A4200D01A625C23E15A2000FFF723FC1A
:103F2000002E45D0BB0643D523685B6A2B40A26DAB
:103F30001380A36D0233A3655E22A35A013B9BB29B
:103F4000A3522368DF697A0797D0FA0708D542465B
:103F5000D20505D5012119629022A3580B43A35025
:103F6000BB070AD54B46DB0707D5236802221A6236
:103F70008E32A35804210B43A3507B0700D477E76C
:103F80004B46DB0700D473E7236804221A628C32A5
:103F9000A35802210B43A3506AE7200001F0E4F983
:103FA00090230022E25068E7200001F069FAB7E7A9
:103FB0005E23E35A9BB2002B00D150E76822A25A3D
:103FC0009A4200D84BE7EFF31080012282F3108869
:103FD00021688B680D4D2B408B6080F310880C4B53
:103FE0006367EFF3108182F3108822681368202042
:103FF0000343136081F3108831E7C046FFFEFFFFE3
:10400000FEFFFFEF00800040FFFFFFFBFFFFFFEF21
:104010006D3B000810B5806A01230367C36E012B56
:1040200002D0FFF76CFB10BD5B33C15A4908FFF7A4
:104030009AFBF8E770B50300806A1B681B689B0653
:1040400029D45E230022C252EFF310845D3B83F338
:10405000108801680A681C4D2A400A6084F31088A1
:10406000EFF3108483F3108801688A689A438A60AA
:1040700084F31088EFF3108183F31088026893684B
:104080004024A343936081F310888C232022C250E4
:10409000C36E012B07D000230367C36E012B0ED024
:1040A00001F0EEF970BDEFF3108183F31088026820
:1040B0001368303CA343136081F31088EBE75B3354
:1040C000C15AFFF750FBEDE7FFFEFFFFF8B5040014
:1040D000A84B42689A4200D995E0A3688022520515
:1040E000934206D0002B04D080225201934200D08C
:1040F0008EE0A14B22689A4200D18EE0E3688022D4
:10410000520193420AD0002B08D0C0229201934260
:1041100004D080229201934200D08AE0236A002BCF
:1041200004D080221201934200D087E02369002B43
:1041300008D08022D200934204D0C022D200934201
:1041400000D081E063690C221900914301D1002B5A
:1041500003D18A498A48FCF7C4FAA369002B0BD023
:1041600080225200934207D00132FF32934203D0A3
:104170000132FF3293426CD1E369002B03D08022DD
:10418000120293426AD1636A0B2B6CD8A36822692E
:10419000134362691343E269134321680A6879484B
:1041A000024013430B602268536877490B40E16873
:1041B0000B435360A16922686F4B9A4201D0236A76
:1041C00019439368714803400B4393602268D36A94
:1041D0000F218B43616A0B43D36222686C4B9A4276
:1041E00046D06C4B9A4200D180E06B4B9A4200D192
:1041F000B3E06A4B9A4200D1B1E05F4B9A4200D1E2
:1042000085E0102340E066495D48FCF76AFA64E700
:1042100064495B48FCF765FA6BE7E368002B85D0DF
:1042200080229201934281D05F495548FCF759FAA8
:104230007CE75E495248FCF754FA6FE7C321090155
:104240004F48FCF74EFA71E759494D48FCF749FAD7
:1042500078E758494A48FCF744FA8DE756494848F8
:10426000FCF73FFA8FE755494548FCF73AFA8DE7E6
:10427000534B596D03230B40022B60D032D8002BD7
:104280005FD0012B5FD103333B498A4200D19FE0CD
:10429000E06980221202904200D1E3E0042B00D1B9
:1042A0002CE100D914E1002B00D120E1022B00D039
:1042B0000CE14448636A5B00434A995AFBF724FFC8
:1042C00063685B08C0186168FBF71EFF0200103AC4
:1042D0003E4B9A4200D91CE123680004000CD860D0
:1042E0000020FBE0032B30D10533CDE7344B596D73
:1042F0000C230B40082B2AD005D8002B29D0042BE7
:10430000C2D01023C0E70C2B25D1043BBCE72C4BBB
:104310005B6DC02109010B40802109018B4220D037
:1043200007D8002B1FD08021C9008B421DD1042348
:10433000AAE7C02109018B4219D10823A4E702236F
:10434000A2E70023A0E710239EE710239CE70223A7
:104350009AE7002398E7102396E7002394E70023C9
:1043600092E7022390E700238EE710238CE71023C7
:104370008AE7C04600127A0000800040340C00003A
:10438000D4580008F369FFCFFFCFFFFFFFF4FF1100
:10439000003801400044004000480040004C00400C
:1043A000270C0000280C00002B0C00002F0C000034
:1043B000330C0000350C0000360C0000370C0000F8
:1043C000001002400024F4000C590008EFFF000028
:1043D000042B43D034D8002B39D0022B2ED14E4D94
:1043E000636A5B004D4A9F5A39002800FBF78CFE38
:1043F000666873009B19834200D982E033038342CD
:1044000000D280E03A00002328000021FBF7F2FFF1
:10441000050E0B022B43020270080021801859413F
:1044200032000023FBF7E6FF3D4BC2183D4B9A429A
:1044300000D96AE02368D86000204FE001204DE0F9
:10444000082B02D180252D02CAE7012046E0FDF7A6
:1044500041FB0500002DC3D100203FE0FDF7A8F986
:104460000500F7E7042B2ED023D8002B25D0022BF4
:104470001DD12948636A5B00284A995AFBF744FE1C
:10448000400063685B08C0186168FBF73DFE0200EE
:10449000103A254B9A423AD882B20F239A434008E9
:1044A000083B184010432368D860002016E0012024
:1044B00014E0082BDED0012010E0FDF70BFB0028F4
:1044C000D8D100200AE0FDF773F9F8E7012005E0F4
:1044D000082B02D180200002ECE6012001236A2291
:1044E000A352023AA35200236367A367F8BDFDF706
:1044F000F1FA002800D0DDE60020EFE7FDF758F9DB
:10450000F7E70120EAE70120E8E70120E6E70120DC
:10451000E4E70120E2E7C0460024F4000C5900085B
:1045200000FDFFFFFFFC0F00EFFF000010B50400CF
:10453000836AFF2B00D99CE0A36A1B070ED5A36BEF
:10454000002B04D080221202934200D096E0226811
:1045500053686C490B40A16B0B435360A36ADB07A4
:104560000ED5E36A002B04D080229202934200D041
:1045700089E02268536864490B40E16A0B43536049
:10458000A36A9B070ED5236B002B04D08022520216
:10459000934200D07CE0226853685C490B40216B59
:1045A0000B435360A36A5B070ED5636B002B04D0EB
:1045B0008022D202934200D06FE0226853685449AF
:1045C0000B40616B0B435360A36ADB060DD5E36BB5
:1045D000002B03D080225201934263D1226893685A
:1045E0004C490B40E16B0B439360A36A9B060DD5CE
:1045F000236C002B03D080229201934257D1226872
:10460000936845490B40216C0B439360A36A5B069A
:104610001DD52368414A934206D0414A934203D0B4
:1046200040494148FCF75DF8636C002B03D08022C1
:104630005203934240D1226853683C490B40616C5D
:104640000B43536080235B03626C9A4239D0A36AA8
:104650001B060DD5E36C002B03D08022120393427E
:104660004BD12268536832490B40E16C0B435360D5
:1046700010BD30492C48FCF734F85DE72E492A4834
:10468000FCF72FF863E72D492748FCF72AF870E775
:104690002B492548FCF725F87DE72A492248FCF7F5
:1046A00020F88AE728492048FCF71BF896E72749B5
:1046B0001D48FCF716F8A2E725491B48FCF711F83E
:1046C000B9E7A36C002B0BD080229203934207D052
:1046D0008022D203934203D0C022D203934207D157
:1046E000226853681B490B40A16C0B435360AEE733
:1046F00019490D48FBF7F5FFF2E718490A48FBF79F
:10470000F0FFAEE7FF7FFFFFFFFFFDFFFFFFFEFFB4
:10471000FFFFFBFFFFEFFFFFFFDFFFFF0038014060
:1047200000440040210D0000D4580008FFFFEFFFB7
:10473000FFFFF7FFF20C0000F70C0000FE0C00007A
:10474000050D00000C0D0000130D00001A0D0000F7
:10475000220D0000FFFF9FFF270D00002F0D00001E
:10476000F8B5CE46474680B506000D0017009946BD
:10477000089B98463368DC692C40641B63425C41AB
:10478000BC4233D143460133F4D0FEF785F84B46A3
:10479000C01A40452FD84346002B2ED033681A68E4
:1047A0005207E7D5802DE5D0402DE3D0DA69120716
:1047B00010D4DA691205DDD5802212011A623000A8
:1047C000FEF712FE90232022F2500C3B0022F254FE
:1047D00003200CE008241C623000FEF705FE902345
:1047E000F4500C3B0022F254012000E00020C0BC39
:1047F000B946B046F8BD0320F9E70320F7E7F0B566
:10480000C64600B582B004000D0090461E00882305
:10481000C358202B66D1002969D0002A69D0802393
:104820005B0182689A4204D10369002B01D1CB0756
:1048300061D490230022E250083B2132E250FEF77F
:104840002BF8070054234246E2520233E2528023FF
:104850005B01A2689A4202D00023984618E02369BF
:10486000002B2AD00023984612E088232022E25011
:10487000032038E043461B882268DB05DB0D93628A
:1048800002239C46E0445623E25A013A92B2E25295
:104890005623E35A9BB2002B12D000963B00002215
:1048A00080212000FFF75CFF0028DED1002DE1D041
:1048B0002A7823689A620135E5E7A8460025E7E7EC
:1048C00000963B00002240212000FFF749FF00280E
:1048D00003D188232022E25005E088232022E250E1
:1048E000032000E0022002B080BCB846F0BD0120E9
:1048F000F9E70120F7E70120F5E7000030B583B0C4
:10490000040090230022C250FDF7C6FF0500226874
:104910001268130710D423681B685B072BD420236D
:104920008822A3500432A3500023E3662367083A89
:10493000A354002003B030BD8021234B009303001B
:10494000002289032000FFF70BFF0028E3D0EFF3DC
:104950001081012383F31088226813688020834329
:10496000136081F3108888232022E250043B002248
:10497000E2547D38DEE78021134B00932B000022A8
:10498000C9032000FFF7ECFE0028C8D0EFF3108029
:10499000012282F3108821680B680C4D2B400B60BC
:1049A00080F31088EFF3108082F3108821688B6801
:1049B00093438B6080F310888C231F32E250083BB6
:1049C0000022E2540320B5E7FFFFFF01DFFEFFFFF7
:1049D00010B5041E5FD08369002B3BD003682F4ABB
:1049E000934210D02E4A93420DD02E4A93420AD0C1
:1049F0002D4A934207D02D4A934204D09F2149006B
:104A00002B48FBF76EFE8823E358002B38D0882311
:104A10002422E2502268136801218B431360A36AA9
:104A2000002B34D12000FFF751FB012811D0226860
:104A3000536820490B405360226893682A218B43B6
:104A400093602268136829390B4313602000FFF735
:104A500055FF10BD0368114A9342D4D0104A9342C7
:104A6000D1D0104A9342CED00F4A9342CBD00F4AB6
:104A70009342C8D04421FF310D48FBF732FEC2E714
:104A800084330022E2542000FCF778F8BFE72000CE
:104A9000FFF74CFDC6E70120DBE7C04600380140C8
:104AA0000044004000480040004C004000800040AE
:104AB000D4580008FFB7FFFF10B581655C23C252D0
:104AC0000233C252002343678368802149018B422D
:104AD00008D0002B15D10369002B0ED16033FF21C4
:104AE000C15215E00369002B03D160334649C1521E
:104AF0000EE06023FF21C1520AE060237F21C152F2
:104B000006E0802149058B4231D060230021C1524B
:104B100090230021C150043B2231C150EFF3108C8F
:104B2000012484F3108801688B6823438B608CF325
:104B3000108880239B05416E994223D080235B011E
:104B400082689A424CD0314B43670369002B4DD0A9
:104B5000EFF31081012383F310880268106820337B
:104B6000FF330343136081F31088002010BD0369F5
:104B7000002B03D160337F21C152C9E760233F215D
:104B8000C152C5E76823C35A9342D7D880235B013B
:104B900082689A421ED01E4B43670369002B0BD0DC
:104BA000EFF31081012383F3108802681468FF3348
:104BB0002343136081F31088EFF31081012383F303
:104BC00010880268906880235B050343936081F33B
:104BD0001088CAE70369002BDDD10E4B4367DCE781
:104BE0000369002BAFD10C4B4367AEE7EFF31081A5
:104BF000012383F3108802681368202003431360A5
:104C000081F31088B1E7C046FF010000893A00082F
:104C1000513C0008313E00086D3B000870B58C2304
:104C2000C358202B26D1002926D0002A26D0802345
:104C30005B0184689C4204D10369002B01D1CB073E
:104C40001ED40023C36603680E4CA3420FD05B68DA
:104C50001B020CD5EFF3108C012383F3108804683A
:104C600025688023DB042B4323608CF31088FFF737
:104C700023FF00E0022070BD0120FCE70120FAE7DD
:104C80000120F8E70080004010B5040013008165A2
:104C90005C228352343200218150043A2231815007
:104CA0000C3A8258002A13D02149D16280228158BF
:104CB00020480863A15820484863A1580020886311
:104CC00021682431A058A26DFDF7F0FB002826D101
:104CD0002369002B0BD0EFF31081012383F310889D
:104CE00022681068FF330343136081F31088EFF3E9
:104CF0001080012383F3108821688A681A438A6030
:104D000080F31088EFF3108183F310882268936892
:104D100040200343936081F31088002010BD90234E
:104D20001022E250043B1032E2500120F6E7C04668
:104D300035400008154000080137000870B58C2385
:104D4000C358202B26D1002926D0002A26D0802324
:104D50005B0184689C4204D10369002B01D1CB071D
:104D60001ED40023C36603680E4CA3420FD05B68B9
:104D70001B020CD5EFF3108C012383F31088046819
:104D800025688023DB042B4323608CF31088FFF716
:104D90007BFF00E0022070BD0120FCE70120FAE764
:104DA0000120F8E700800040F8B50400436E002BB6
:104DB00005D101336A228352023A8352F8BD026858
:104DC00095686D0E07231D409268520F1340084FDF
:104DD000F85CC000074EF15CFBF720FA6A23E05252
:104DE000785DC000715DFBF719FA6823E052E5E7D2
:104DF0006859000860590008704770477047000004
:104E000070B504000368164A934209D0154A9342CC
:104E100006D0154A934203D014491548FBF761FCAC
:104E20008423E35C012B19D084250120605588265A
:104E30002423A351226813681168814311608022E2
:104E4000920513436266226813602000FFF7ACFFEF
:104E50002023A35100236355002070BD0220FCE7EE
:104E60000038014000440040008000400D02000076
:104E700024590008F0B5C64600B504000F000368C9
:104E8000274A93420AD0274A934207D0264A9342A0
:104E900004D0992189002548FBF723FC002F13D06B
:104EA00080239B059F420FD08023DB059F420BD0C0
:104EB000C023DB059F4207D080231B069F4203D0FF
:104EC000A0231B069F4223D18423E35C012B24D023
:104ED00084250121615588262423A35123681A685B
:104EE00090461A688A431A6022689368DB00D908E2
:104EF000394391602000FFF757FF236842461A604C
:104F00002023A35100236355002080BCB846F0BD88
:104F100007490648FBF7E5FBD6E70220F5E7C04660
:104F2000003801400044004000800040245900083F
:104F300065020000F0B5C64600B504000D00036828
:104F4000264A934209D0264A934206D0254A9342E4
:104F500003D025492548FBF7C4FB002D13D080233F
:104F60009B049D420FD08023DB049D420BD0C023C5
:104F7000DB049D4207D080231B059D4203D0A02364
:104F80001B059D4223D18423E35C012B24D084267E
:104F90000121A15588272423E35123681A689046EC
:104FA0001A688A431A6023689968114A11400D43B0
:104FB0009D602000FFF7F8FE236842461A60202318
:104FC000E3510023A355002080BCB846F0BD094939
:104FD0000648FBF786FBD6E70220F5E700380140DC
:104FE0000044004000800040950200002459000861
:104FF000FFFFFFF196020000704743684B609A681C
:105000008A605160996008610368013303607047EA
:105010000369416882688A60416851605A688242C7
:1050200006D0002202611A68013A1A6018687047B7
:1050300082685A60F5E70000084B1B681B68002B6C
:1050400004D1074B012252421A607047034B1B6880
:10505000DB68DB685A68024B1A60F6E7140500202B
:10506000B0050020F8B5394B1B68002B66D1384BD2
:105070001D6801351D60002D12D1364B1B681B6861
:10508000002B01D072B6FEE7324A1168324B186825
:1050900010601960314A136801331360FFF7CCFFC9
:1050A0002F4B1B68AB423FD900272E4B1B68DA6A97
:1050B00093009B189A002C4BD358012B00D9012741
:1050C0002A4B1B68002B3ED001273CE00127214BD7
:1050D0001B681B68002B29D01E4B1B68DB68DC6833
:1050E00063689D4227D3261D3000FFF791FFA36A16
:1050F000002B03D020001830FFF78AFFE26A1C4B18
:105100001B689A4201D91A4B1A6093009B189800A9
:10511000154BC0183100FFF770FFE26A114B1B6896
:10512000DB6A9A42D2D2D2E70027D0E70C4B0122A9
:1051300052421A60B9E70A4A1360B6E70D4A13688B
:105140000133136000273800F8BDC046A8050020D1
:10515000D00500201405002018050020B40500200B
:10516000B0050020100500201C050020D4050020FB
:10517000AC050020B805002070B52A4B1B68002B39
:1051800003D0294B01221A6070BD274B00221A6000
:10519000264B1B681B6B264A1968914202D159683D
:1051A000914212D0214B186819683431FBF732FB59
:1051B000204B1B689A00D21891001F4A8A58002A77
:1051C0000DD1002B09D0013BF4E799689142E9D158
:1051D000DA68174B9A42E5D1EAE772B6FEE7164D58
:1051E0009900CA1890002818426854684460C91889
:1051F0008A000832521994420FD09A00D2189100B6
:105200000D4A52185268D168084A116009490B606A
:1052100013685033094A1360B6E7606889006A185A
:105220005060EAE7A8050020D40500201005002002
:10523000A5A5A5A5AC0500201C0500200C0000209C
:10524000F8B504000D00002812D000F050F8060058
:105250001F4BE15C0222E2548F22D200A35801339B
:10526000A35001292AD1A36A002B03D072B6FEE70E
:1052700072B6FEE7174B1B68002B23D1271D3800A1
:10528000FFF7C6FEE36A144A1268934201D9124A34
:1052900013609800C0188000104BC0183900FFF749
:1052A000ACFEE26A0E4B1B68DB6A9A4206D9002DFF
:1052B00001D001232B600B4B01221A60300000F05B
:1052C0001AF8F8BD210018310748FFF796FEE8E705
:1052D0007C040000A8050020AC0500201C0500206F
:1052E00010050020D4050020BC0500207047EFF316
:1052F000108072B6704780F310887047000000007D
:10530000EFF309800E4B1A6820381060F0C0444655
:105310004D4656465F46F0C008B572B6FFF72CFF03
:1053200062B60CBC116808681030F0C8A046A946E7
:10533000B246BB4680F309882038F0C81847C046FB
:105340001005002010B5FFF7D2FF0400FFF78AFE1A
:10535000002803D0034B802252051A602000FFF77B
:10536000CAFF10BD04ED00E030B583B00023019307
:105370001C4B984204D01C4B984203D003B030BD64
:105380001A4C00E01A4C03689B685B061AD5902300
:10539000C3589B0608D58023C3581B685B689BB223
:1053A000A588ED1AADB200E00025A3685A1C0123C0
:1053B0001340A360A28804339B001959FFF7BEFC79
:1053C000002D07D1019B002BD8D00A4B802252051B
:1053D0001A60D3E7E560084B186801A9FFF730FFB2
:1053E000F0E7C0467002002004030020D80500202A
:1053F0002C06002004ED00E08C00002000B583B0F6
:1054000000230193144B98420AD0144B984210D0B9
:10541000134B98420FD0134B984208D1124A00E028
:10542000124A0D4B984208D00C4B984205D003B05D
:1054300000BD0F4AF5E70F4AF3E7002313620E4B56
:10544000186801A9FFF7FCFE019B002BEFD00B4B66
:10545000802252051A60EAE770020020040300204F
:10546000980300202C040020D4060020D80500203A
:105470002C060020800600208C00002004ED00E0B7
:1054800010B582B0002301931E4B98420AD01E4BE8
:10549000984218D01D4B984217D01D4B984210D1FE
:1054A0001C4C00E01C4C236B002B10D0236D002BF8
:1054B00002D0012120699847216920680122FFF765
:1054C000ADFB02B010BD154CEDE7154CEBE7A36842
:1054D0005A1C01231340A360A28804339B0019596E
:1054E0002068FFF72BFC6368E3600E4B186801A986
:1054F000FFF7A6FE019B002BE3D00B4B8022520549
:105500001A60DEE7700200200403002098030020E8
:105510002C040020D4060020D80500202C060020F2
:10552000800600208C00002004ED00E00D48854638
:10553000FFF762FD0C480D490D4A002302E0D458E4
:10554000C4500433C4188C42F9D30A4A0A4C0023CD
:1055500001E013600432A242FBD300F011F8FBF724
:10556000AAF8FEE700900020000000207000002054
:10557000E05900087000002028070020FEE7000026
:1055800070B500260C4D0D4C641BA410A64209D129
:10559000002600F021F80A4D0A4C641BA410A64214
:1055A00005D170BDB300EB5898470136EEE7B30064
:1055B000EB5898470136F2E7D8590008D859000847
:1055C000D8590008DC59000803008218934200D122
:1055D000704719700133F9E7F8B5C046F8BC08BC4C
:1055E0009E467047F8B5C046F8BC08BC9E4670475A
:1055F0007561727431207472616E730A000000006C
:105600007561727431206974207472616E730A005E
:105610007561727432207472616E730A000000004A
:105620007561727432206974207472616E730A003D
:105630007561727433207472616E730A0000000029
:1056400075617233206974207472616E730A000090
:105650007561727434207472616E730A0000000008
:105660007561727434206974207472616E730A00FB
:10567000447269766572732F53544D3332473078D4
:10568000785F48414C5F4472697665722F5372634C
:105690002F73746D3332673078785F68616C5F6345
:1056A00072632E6300000000447269766572732F86
:1056B00053544D3332473078785F48414C5F4472E1
:1056C000697665722F5372632F73746D333267304E
:1056D00078785F68616C5F6372635F65782E6300E2
:1056E000447269766572732F53544D333247307864
:1056F000785F48414C5F4472697665722F537263DC
:105700002F73746D3332673078785F68616C5F72C5
:1057100063632E6300000000447269766572732F24
:1057200053544D3332473078785F48414C5F447270
:10573000697665722F5372632F73746D33326730DD
:1057400078785F68616C5F7263635F65782E630071
:10575000447269766572732F53544D3332473078F3
:10576000785F48414C5F4472697665722F5372636B
:105770002F73746D3332673078785F68616C5F6760
:1057800070696F2E63000000447269766572732F32
:1057900053544D3332473078785F48414C5F447200
:1057A000697665722F5372632F73746D333267306D
:1057B00078785F68616C5F646D612E630000000043
:1057C000447269766572732F53544D333247307883
:1057D000785F48414C5F4472697665722F537263FB
:1057E0002F73746D3332673078785F68616C5F70E7
:1057F00077725F65782E6300447269766572732FE5
:1058000053544D3332473078785F48414C5F44728F
:10581000697665722F5372632F73746D33326730FC
:1058200078785F68616C5F636F727465782E63006F
:10583000447269766572732F53544D333247307812
:10584000785F48414C5F4472697665722F5372638A
:105850002F73746D3332673078785F68616C2E63B4
:1058600000000000447269766572732F53544D3303
:1058700032473078785F48414C5F44726976657290
:105880002F5372632F73746D3332673078785F688B
:10589000616C5F74696D2E6300000000447269766C
:1058A0006572732F53544D3332473078785F4841D7
:1058B0004C5F4472697665722F5372632F73746DF7
:1058C0003332673078785F68616C5F74696D5F65EB
:1058D000782E6300447269766572732F53544D338A
:1058E00032473078785F48414C5F44726976657220
:1058F0002F5372632F73746D3332673078785F681B
:10590000616C5F756172742E63000000010002001B
:105910000400060008000A000C00100020004000EF
:1059200080000001447269766572732F53544D33C1
:1059300032473078785F48414C5F447269766572CF
:105940002F5372632F73746D3332673078785F68CA
:10595000616C5F756172745F65782E630000000092
:10596000080402040801010101010103070100000C
:105970000000000000000000000000000000000027
:105980000000000000000000000000000000000017
:1059900001000000020000000300000004000000FD
:1059A00006000000070000000800000009000000D9
:1059B00000000000000000000000000000000000E7
:1059C00001000000020000000300000004000000CD
:0859D00064AAFF7F0100000042
:0459D800E9000008DA
:0459DC00C1000008FE
:1059E00001000000040000000024F400100000206A
:1059F00000000000000000000000000000000000A7
:105A00000000000000000000000000000000000096
:105A10000000000000000000000000000000000086
:105A20000000000000000000000000000000000076
:105A30000000000000000000000000000000000066
:105A40000000000000000000000000000000000056
:040000050800552D6D
:00000001FF
